{
  "address": "0xC77685a8c8893884208A7840054244Ee9657a840",
  "abi": [
    {
      "inputs": [
        {
          "internalType": "string",
          "name": "_baseTokenURI",
          "type": "string"
        }
      ],
      "stateMutability": "nonpayable",
      "type": "constructor"
    },
    {
      "anonymous": false,
      "inputs": [
        {
          "indexed": true,
          "internalType": "address",
          "name": "owner",
          "type": "address"
        },
        {
          "indexed": true,
          "internalType": "address",
          "name": "approved",
          "type": "address"
        },
        {
          "indexed": true,
          "internalType": "uint256",
          "name": "tokenId",
          "type": "uint256"
        }
      ],
      "name": "Approval",
      "type": "event"
    },
    {
      "anonymous": false,
      "inputs": [
        {
          "indexed": true,
          "internalType": "address",
          "name": "owner",
          "type": "address"
        },
        {
          "indexed": true,
          "internalType": "address",
          "name": "operator",
          "type": "address"
        },
        {
          "indexed": false,
          "internalType": "bool",
          "name": "approved",
          "type": "bool"
        }
      ],
      "name": "ApprovalForAll",
      "type": "event"
    },
    {
      "anonymous": false,
      "inputs": [
        {
          "indexed": true,
          "internalType": "address",
          "name": "user",
          "type": "address"
        },
        {
          "indexed": true,
          "internalType": "uint256",
          "name": "tokenId",
          "type": "uint256"
        }
      ],
      "name": "Graduated",
      "type": "event"
    },
    {
      "anonymous": false,
      "inputs": [
        {
          "indexed": true,
          "internalType": "uint256",
          "name": "moduleId",
          "type": "uint256"
        },
        {
          "indexed": false,
          "internalType": "string",
          "name": "title",
          "type": "string"
        }
      ],
      "name": "ModuleAdded",
      "type": "event"
    },
    {
      "anonymous": false,
      "inputs": [
        {
          "indexed": true,
          "internalType": "address",
          "name": "user",
          "type": "address"
        },
        {
          "indexed": true,
          "internalType": "uint256",
          "name": "moduleId",
          "type": "uint256"
        }
      ],
      "name": "ModuleCompleted",
      "type": "event"
    },
    {
      "anonymous": false,
      "inputs": [
        {
          "indexed": true,
          "internalType": "address",
          "name": "previousOwner",
          "type": "address"
        },
        {
          "indexed": true,
          "internalType": "address",
          "name": "newOwner",
          "type": "address"
        }
      ],
      "name": "OwnershipTransferred",
      "type": "event"
    },
    {
      "anonymous": false,
      "inputs": [
        {
          "indexed": true,
          "internalType": "address",
          "name": "from",
          "type": "address"
        },
        {
          "indexed": true,
          "internalType": "address",
          "name": "to",
          "type": "address"
        },
        {
          "indexed": true,
          "internalType": "uint256",
          "name": "tokenId",
          "type": "uint256"
        }
      ],
      "name": "Transfer",
      "type": "event"
    },
    {
      "inputs": [
        {
          "internalType": "string",
          "name": "title",
          "type": "string"
        },
        {
          "internalType": "string",
          "name": "description",
          "type": "string"
        },
        {
          "internalType": "uint256[]",
          "name": "correctAnswers",
          "type": "uint256[]"
        }
      ],
      "name": "addModule",
      "outputs": [],
      "stateMutability": "nonpayable",
      "type": "function"
    },
    {
      "inputs": [
        {
          "internalType": "address",
          "name": "to",
          "type": "address"
        },
        {
          "internalType": "uint256",
          "name": "tokenId",
          "type": "uint256"
        }
      ],
      "name": "approve",
      "outputs": [],
      "stateMutability": "nonpayable",
      "type": "function"
    },
    {
      "inputs": [
        {
          "internalType": "uint256",
          "name": "",
          "type": "uint256"
        }
      ],
      "name": "badgeOwner",
      "outputs": [
        {
          "internalType": "address",
          "name": "",
          "type": "address"
        }
      ],
      "stateMutability": "view",
      "type": "function"
    },
    {
      "inputs": [
        {
          "internalType": "address",
          "name": "owner",
          "type": "address"
        }
      ],
      "name": "balanceOf",
      "outputs": [
        {
          "internalType": "uint256",
          "name": "",
          "type": "uint256"
        }
      ],
      "stateMutability": "view",
      "type": "function"
    },
    {
      "inputs": [],
      "name": "baseTokenURI",
      "outputs": [
        {
          "internalType": "string",
          "name": "",
          "type": "string"
        }
      ],
      "stateMutability": "view",
      "type": "function"
    },
    {
      "inputs": [
        {
          "internalType": "uint256",
          "name": "tokenId",
          "type": "uint256"
        }
      ],
      "name": "getApproved",
      "outputs": [
        {
          "internalType": "address",
          "name": "",
          "type": "address"
        }
      ],
      "stateMutability": "view",
      "type": "function"
    },
    {
      "inputs": [
        {
          "internalType": "uint256",
          "name": "moduleId",
          "type": "uint256"
        }
      ],
      "name": "getModule",
      "outputs": [
        {
          "internalType": "string",
          "name": "title",
          "type": "string"
        },
        {
          "internalType": "string",
          "name": "description",
          "type": "string"
        },
        {
          "internalType": "uint256[]",
          "name": "correctAnswers",
          "type": "uint256[]"
        },
        {
          "internalType": "bool",
          "name": "active",
          "type": "bool"
        }
      ],
      "stateMutability": "view",
      "type": "function"
    },
    {
      "inputs": [
        {
          "internalType": "address",
          "name": "user",
          "type": "address"
        }
      ],
      "name": "getUserProgress",
      "outputs": [
        {
          "internalType": "uint256",
          "name": "completed",
          "type": "uint256"
        },
        {
          "internalType": "uint256",
          "name": "total",
          "type": "uint256"
        },
        {
          "internalType": "bool",
          "name": "graduated",
          "type": "bool"
        },
        {
          "internalType": "uint256",
          "name": "badgeId",
          "type": "uint256"
        }
      ],
      "stateMutability": "view",
      "type": "function"
    },
    {
      "inputs": [
        {
          "internalType": "address",
          "name": "user",
          "type": "address"
        },
        {
          "internalType": "uint256",
          "name": "moduleId",
          "type": "uint256"
        }
      ],
      "name": "hasCompletedModule",
      "outputs": [
        {
          "internalType": "bool",
          "name": "",
          "type": "bool"
        }
      ],
      "stateMutability": "view",
      "type": "function"
    },
    {
      "inputs": [
        {
          "internalType": "address",
          "name": "owner",
          "type": "address"
        },
        {
          "internalType": "address",
          "name": "operator",
          "type": "address"
        }
      ],
      "name": "isApprovedForAll",
      "outputs": [
        {
          "internalType": "bool",
          "name": "",
          "type": "bool"
        }
      ],
      "stateMutability": "view",
      "type": "function"
    },
    {
      "inputs": [
        {
          "internalType": "uint256",
          "name": "",
          "type": "uint256"
        }
      ],
      "name": "modules",
      "outputs": [
        {
          "internalType": "string",
          "name": "title",
          "type": "string"
        },
        {
          "internalType": "string",
          "name": "description",
          "type": "string"
        },
        {
          "internalType": "bool",
          "name": "active",
          "type": "bool"
        }
      ],
      "stateMutability": "view",
      "type": "function"
    },
    {
      "inputs": [],
      "name": "name",
      "outputs": [
        {
          "internalType": "string",
          "name": "",
          "type": "string"
        }
      ],
      "stateMutability": "view",
      "type": "function"
    },
    {
      "inputs": [],
      "name": "nextTokenId",
      "outputs": [
        {
          "internalType": "uint256",
          "name": "",
          "type": "uint256"
        }
      ],
      "stateMutability": "view",
      "type": "function"
    },
    {
      "inputs": [],
      "name": "owner",
      "outputs": [
        {
          "internalType": "address",
          "name": "",
          "type": "address"
        }
      ],
      "stateMutability": "view",
      "type": "function"
    },
    {
      "inputs": [
        {
          "internalType": "uint256",
          "name": "tokenId",
          "type": "uint256"
        }
      ],
      "name": "ownerOf",
      "outputs": [
        {
          "internalType": "address",
          "name": "",
          "type": "address"
        }
      ],
      "stateMutability": "view",
      "type": "function"
    },
    {
      "inputs": [],
      "name": "renounceOwnership",
      "outputs": [],
      "stateMutability": "nonpayable",
      "type": "function"
    },
    {
      "inputs": [
        {
          "internalType": "address",
          "name": "from",
          "type": "address"
        },
        {
          "internalType": "address",
          "name": "to",
          "type": "address"
        },
        {
          "internalType": "uint256",
          "name": "tokenId",
          "type": "uint256"
        }
      ],
      "name": "safeTransferFrom",
      "outputs": [],
      "stateMutability": "nonpayable",
      "type": "function"
    },
    {
      "inputs": [
        {
          "internalType": "address",
          "name": "from",
          "type": "address"
        },
        {
          "internalType": "address",
          "name": "to",
          "type": "address"
        },
        {
          "internalType": "uint256",
          "name": "tokenId",
          "type": "uint256"
        },
        {
          "internalType": "bytes",
          "name": "data",
          "type": "bytes"
        }
      ],
      "name": "safeTransferFrom",
      "outputs": [],
      "stateMutability": "nonpayable",
      "type": "function"
    },
    {
      "inputs": [
        {
          "internalType": "address",
          "name": "operator",
          "type": "address"
        },
        {
          "internalType": "bool",
          "name": "approved",
          "type": "bool"
        }
      ],
      "name": "setApprovalForAll",
      "outputs": [],
      "stateMutability": "nonpayable",
      "type": "function"
    },
    {
      "inputs": [
        {
          "internalType": "string",
          "name": "newBaseURI",
          "type": "string"
        }
      ],
      "name": "setBaseTokenURI",
      "outputs": [],
      "stateMutability": "nonpayable",
      "type": "function"
    },
    {
      "inputs": [
        {
          "internalType": "uint256",
          "name": "moduleId",
          "type": "uint256"
        },
        {
          "internalType": "uint256[]",
          "name": "answers",
          "type": "uint256[]"
        }
      ],
      "name": "submitQuiz",
      "outputs": [],
      "stateMutability": "nonpayable",
      "type": "function"
    },
    {
      "inputs": [
        {
          "internalType": "bytes4",
          "name": "interfaceId",
          "type": "bytes4"
        }
      ],
      "name": "supportsInterface",
      "outputs": [
        {
          "internalType": "bool",
          "name": "",
          "type": "bool"
        }
      ],
      "stateMutability": "view",
      "type": "function"
    },
    {
      "inputs": [],
      "name": "symbol",
      "outputs": [
        {
          "internalType": "string",
          "name": "",
          "type": "string"
        }
      ],
      "stateMutability": "view",
      "type": "function"
    },
    {
      "inputs": [
        {
          "internalType": "uint256",
          "name": "moduleId",
          "type": "uint256"
        }
      ],
      "name": "toggleModule",
      "outputs": [],
      "stateMutability": "nonpayable",
      "type": "function"
    },
    {
      "inputs": [
        {
          "internalType": "uint256",
          "name": "tokenId",
          "type": "uint256"
        }
      ],
      "name": "tokenURI",
      "outputs": [
        {
          "internalType": "string",
          "name": "",
          "type": "string"
        }
      ],
      "stateMutability": "view",
      "type": "function"
    },
    {
      "inputs": [],
      "name": "totalModules",
      "outputs": [
        {
          "internalType": "uint256",
          "name": "",
          "type": "uint256"
        }
      ],
      "stateMutability": "view",
      "type": "function"
    },
    {
      "inputs": [
        {
          "internalType": "address",
          "name": "from",
          "type": "address"
        },
        {
          "internalType": "address",
          "name": "to",
          "type": "address"
        },
        {
          "internalType": "uint256",
          "name": "tokenId",
          "type": "uint256"
        }
      ],
      "name": "transferFrom",
      "outputs": [],
      "stateMutability": "nonpayable",
      "type": "function"
    },
    {
      "inputs": [
        {
          "internalType": "address",
          "name": "newOwner",
          "type": "address"
        }
      ],
      "name": "transferOwnership",
      "outputs": [],
      "stateMutability": "nonpayable",
      "type": "function"
    },
    {
      "inputs": [
        {
          "internalType": "uint256",
          "name": "moduleId",
          "type": "uint256"
        },
        {
          "internalType": "uint256[]",
          "name": "newAnswers",
          "type": "uint256[]"
        }
      ],
      "name": "updateModuleAnswers",
      "outputs": [],
      "stateMutability": "nonpayable",
      "type": "function"
    },
    {
      "inputs": [
        {
          "internalType": "address",
          "name": "",
          "type": "address"
        }
      ],
      "name": "userProgress",
      "outputs": [
        {
          "internalType": "uint256",
          "name": "completedModules",
          "type": "uint256"
        },
        {
          "internalType": "bool",
          "name": "hasGraduated",
          "type": "bool"
        },
        {
          "internalType": "uint256",
          "name": "badgeTokenId",
          "type": "uint256"
        }
      ],
      "stateMutability": "view",
      "type": "function"
    }
  ],
  "transactionHash": "0x0cdf100ce9d6547cbe967acaade8f483e527adfbb6d45d11b4d5928826c4f3bf",
  "args": [
    "ipfs://YOUR_BASE_URI/"
  ],
  "numDeployments": 1,
  "solcInputHash": "dc79d82222b98925c74be73526cef30d",
  "bytecode": "0x6080604052600160085534801561001557600080fd5b5060405161297c38038061297c8339810160408190526100349161013b565b6040518060400160405280601a81526020017f5363726f6c6c2041636164656d79204772616e646d6173746572000000000000815250604051806040016040528060048152602001635341474d60e01b81525081600090816100969190610290565b5060016100a38282610290565b5050506100bc6100b76100cf60201b60201c565b6100d3565b60096100c88282610290565b505061034e565b3390565b600680546001600160a01b038381166001600160a01b0319831681179093556040519116919082907f8be0079c531659141344cd1fd0a4f28419497f9722a3daafe3b4186f6b6457e090600090a35050565b634e487b7160e01b600052604160045260246000fd5b60006020828403121561014d57600080fd5b81516001600160401b0381111561016357600080fd5b8201601f8101841361017457600080fd5b80516001600160401b0381111561018d5761018d610125565b604051601f8201601f19908116603f011681016001600160401b03811182821017156101bb576101bb610125565b6040528181528282016020018610156101d357600080fd5b60005b828110156101f2576020818501810151838301820152016101d6565b50600091810160200191909152949350505050565b600181811c9082168061021b57607f821691505b60208210810361023b57634e487b7160e01b600052602260045260246000fd5b50919050565b601f82111561028b57806000526020600020601f840160051c810160208510156102685750805b601f840160051c820191505b818110156102885760008155600101610274565b50505b505050565b81516001600160401b038111156102a9576102a9610125565b6102bd816102b78454610207565b84610241565b6020601f8211600181146102f157600083156102d95750848201515b600019600385901b1c1916600184901b178455610288565b600084815260208120601f198516915b828110156103215787850151825560209485019460019092019101610301565b508482101561033f5786840151600019600387901b60f8161c191681555b50505050600190811b01905550565b61261f8061035d6000396000f3fe608060405234801561001057600080fd5b50600436106101da5760003560e01c806378bbd70111610104578063b88d4fde116100a2578063d547cfb711610071578063d547cfb7146104cc578063de5dc3a0146104d4578063e985e9c5146104e7578063f2fde38b1461052357600080fd5b8063b88d4fde14610446578063bb3cbae114610459578063be8cd62a146104a6578063c87b56dd146104b957600080fd5b80638e4cc108116100de5780638e4cc1081461038857806395d89b41146103ee578063a22cb465146103f6578063b4faa1fa1461040957600080fd5b806378bbd7011461034c57806381b2248a146103555780638da5cb5b1461037757600080fd5b80633aeef20d1161017c5780636352211e1161014b5780636352211e1461030757806370a082311461031a578063715018a61461033b57806375794a3c1461034357600080fd5b80633aeef20d146102955780633f4d4907146102be57806342842e0e146102d157806355f916b6146102e457600080fd5b8063081812fc116101b8578063081812fc14610231578063095ea7b31461025c57806323b872dd1461026f57806330176e131461028257600080fd5b806301ffc9a7146101df5780630401b7c51461020757806306fdde031461021c575b600080fd5b6101f26101ed366004611d2b565b610536565b60405190151581526020015b60405180910390f35b61021a610215366004611d4f565b610588565b005b6102246105ea565b6040516101fe9190611db8565b61024461023f366004611d4f565b61067c565b6040516001600160a01b0390911681526020016101fe565b61021a61026a366004611de7565b6106a3565b61021a61027d366004611e11565b6107b8565b61021a610290366004611f11565b6107e9565b6102446102a3366004611d4f565b600c602052600090815260409020546001600160a01b031681565b61021a6102cc366004611fc9565b610801565b61021a6102df366004611e11565b6108ec565b6102f76102f2366004611d4f565b610907565b6040516101fe949392919061205d565b610244610315366004611d4f565b610b00565b61032d6103283660046120d3565b610b60565b6040519081526020016101fe565b61021a610be6565b61032d60085481565b61032d60075481565b610368610363366004611d4f565b610bfa565b6040516101fe939291906120ee565b6006546001600160a01b0316610244565b6103c86103963660046120d3565b6001600160a01b03166000908152600b60205260409020805460075460028301546003909301549193909260ff169190565b6040805194855260208501939093529015159183019190915260608201526080016101fe565b610224610d2f565b61021a610404366004612126565b610d3e565b6101f2610417366004611de7565b6001600160a01b03919091166000908152600b6020908152604080832093835260019093019052205460ff1690565b61021a610454366004612162565b610d49565b61048b6104673660046120d3565b600b60205260009081526040902080546002820154600390920154909160ff169083565b604080519384529115156020840152908201526060016101fe565b61021a6104b43660046121de565b610d81565b6102246104c7366004611d4f565b610ddc565b610224610e6c565b61021a6104e23660046121de565b610efa565b6101f26104f5366004612225565b6001600160a01b03918216600090815260056020908152604080832093909416825291909152205460ff1690565b61021a6105313660046120d3565b611232565b60006001600160e01b031982166380ac58cd60e01b148061056757506001600160e01b03198216635b5e139f60e01b145b8061058257506301ffc9a760e01b6001600160e01b03198316145b92915050565b6105906112ab565b6000811180156105a257506007548111155b6105c75760405162461bcd60e51b81526004016105be90612258565b60405180910390fd5b6000908152600a60205260409020600301805460ff19811660ff90911615179055565b6060600080546105f990612280565b80601f016020809104026020016040519081016040528092919081815260200182805461062590612280565b80156106725780601f1061064757610100808354040283529160200191610672565b820191906000526020600020905b81548152906001019060200180831161065557829003601f168201915b5050505050905090565b600061068782611305565b506000908152600460205260409020546001600160a01b031690565b60006106ae82610b00565b9050806001600160a01b0316836001600160a01b03160361071b5760405162461bcd60e51b815260206004820152602160248201527f4552433732313a20617070726f76616c20746f2063757272656e74206f776e656044820152603960f91b60648201526084016105be565b336001600160a01b0382161480610737575061073781336104f5565b6107a95760405162461bcd60e51b815260206004820152603d60248201527f4552433732313a20617070726f76652063616c6c6572206973206e6f7420746f60448201527f6b656e206f776e6572206f7220617070726f76656420666f7220616c6c00000060648201526084016105be565b6107b38383611364565b505050565b6107c233826113d2565b6107de5760405162461bcd60e51b81526004016105be906122ba565b6107b3838383611451565b6107f16112ab565b60096107fd8282612355565b5050565b6108096112ab565b600780549060006108198361242a565b9091555050604080516080810182528481526020808201859052818301849052600160608301526007546000908152600a909152919091208151819061085f9082612355565b50602082015160018201906108749082612355565b5060408201518051610890916002840191602090910190611cb5565b50606091909101516003909101805460ff19169115159190911790556007546040517f484c860fee5aa3a443c5037ff9aec6961fef64378dbe002fe61a4f2b9f0e9fc3906108df908690611db8565b60405180910390a2505050565b6107b383838360405180602001604052806000815250610d49565b60608060606000808511801561091f57506007548511155b61093b5760405162461bcd60e51b81526004016105be90612258565b6000858152600a602052604080822081516080810190925280548290829061096290612280565b80601f016020809104026020016040519081016040528092919081815260200182805461098e90612280565b80156109db5780601f106109b0576101008083540402835291602001916109db565b820191906000526020600020905b8154815290600101906020018083116109be57829003601f168201915b505050505081526020016001820180546109f490612280565b80601f0160208091040260200160405190810160405280929190818152602001828054610a2090612280565b8015610a6d5780601f10610a4257610100808354040283529160200191610a6d565b820191906000526020600020905b815481529060010190602001808311610a5057829003601f168201915b5050505050815260200160028201805480602002602001604051908101604052809291908181526020018280548015610ac557602002820191906000526020600020905b815481526020019060010190808311610ab1575b50505091835250506003919091015460ff16151560209182015281519082015160408301516060909301519199909850919650945092505050565b6000818152600260205260408120546001600160a01b0316806105825760405162461bcd60e51b8152602060048201526018602482015277115490cdcc8c4e881a5b9d985b1a59081d1bdad95b88125160421b60448201526064016105be565b60006001600160a01b038216610bca5760405162461bcd60e51b815260206004820152602960248201527f4552433732313a2061646472657373207a65726f206973206e6f7420612076616044820152683634b21037bbb732b960b91b60648201526084016105be565b506001600160a01b031660009081526003602052604090205490565b610bee6112ab565b610bf860006115c2565b565b600a60205260009081526040902080548190610c1590612280565b80601f0160208091040260200160405190810160405280929190818152602001828054610c4190612280565b8015610c8e5780601f10610c6357610100808354040283529160200191610c8e565b820191906000526020600020905b815481529060010190602001808311610c7157829003601f168201915b505050505090806001018054610ca390612280565b80601f0160208091040260200160405190810160405280929190818152602001828054610ccf90612280565b8015610d1c5780601f10610cf157610100808354040283529160200191610d1c565b820191906000526020600020905b815481529060010190602001808311610cff57829003601f168201915b5050506003909301549192505060ff1683565b6060600180546105f990612280565b6107fd338383611614565b610d5333836113d2565b610d6f5760405162461bcd60e51b81526004016105be906122ba565b610d7b848484846116e2565b50505050565b610d896112ab565b600082118015610d9b57506007548211155b610db75760405162461bcd60e51b81526004016105be90612258565b6000828152600a6020908152604090912082516107b392600290920191840190611cb5565b6000818152600260205260409020546060906001600160a01b0316610e3a5760405162461bcd60e51b8152602060048201526014602482015273151bdad95b88191bd95cc81b9bdd08195e1a5cdd60621b60448201526064016105be565b6009610e4583611715565b604051602001610e56929190612443565b6040516020818303038152906040529050919050565b60098054610e7990612280565b80601f0160208091040260200160405190810160405280929190818152602001828054610ea590612280565b8015610ef25780601f10610ec757610100808354040283529160200191610ef2565b820191906000526020600020905b815481529060010190602001808311610ed557829003601f168201915b505050505081565b600082118015610f0c57506007548211155b610f285760405162461bcd60e51b81526004016105be90612258565b6000828152600a602052604090206003015460ff16610f7d5760405162461bcd60e51b81526020600482015260116024820152704d6f64756c65206e6f742061637469766560781b60448201526064016105be565b336000908152600b6020908152604080832085845260010190915290205460ff1615610fdf5760405162461bcd60e51b8152602060048201526011602482015270105b1c9958591e4818dbdb5c1b195d1959607a1b60448201526064016105be565b600182111561106857336000908152600b602052604081206001908101919061100890856124d9565b815260208101919091526040016000205460ff166110685760405162461bcd60e51b815260206004820152601e60248201527f436f6d706c6574652070726576696f7573206d6f64756c65206669727374000060448201526064016105be565b6000828152600a60209081526040808320600201805482518185028101850190935280835291929091908301828280156110c157602002820191906000526020600020905b8154815260200190600101908083116110ad575b5050505050905080518251146111195760405162461bcd60e51b815260206004820152601760248201527f57726f6e67206e756d626572206f6620616e737765727300000000000000000060448201526064016105be565b60005b82518110156111a257818181518110611137576111376124ec565b6020026020010151838281518110611151576111516124ec565b60200260200101511461119a5760405162461bcd60e51b8152602060048201526011602482015270496e636f727265637420616e737765727360781b60448201526064016105be565b60010161111c565b50336000818152600b6020818152604080842088855260018181018452918520805460ff191690921790915593835252815491906111df8361242a565b9091555050604051839033907ff6048d3d0af1bc43b943eb75aa9fead5f63e07398d74345431c1fe110720a50390600090a3600754336000908152600b6020526040902054036107b3576107b3336117a8565b61123a6112ab565b6001600160a01b03811661129f5760405162461bcd60e51b815260206004820152602660248201527f4f776e61626c653a206e6577206f776e657220697320746865207a65726f206160448201526564647265737360d01b60648201526084016105be565b6112a8816115c2565b50565b6006546001600160a01b03163314610bf85760405162461bcd60e51b815260206004820181905260248201527f4f776e61626c653a2063616c6c6572206973206e6f7420746865206f776e657260448201526064016105be565b6000818152600260205260409020546001600160a01b03166112a85760405162461bcd60e51b8152602060048201526018602482015277115490cdcc8c4e881a5b9d985b1a59081d1bdad95b88125160421b60448201526064016105be565b600081815260046020526040902080546001600160a01b0319166001600160a01b038416908117909155819061139982610b00565b6001600160a01b03167f8c5be1e5ebec7d5bd14f71427d1e84f3dd0314c0f7b2291e5b200ac8c7c3b92560405160405180910390a45050565b6000806113de83610b00565b9050806001600160a01b0316846001600160a01b0316148061142557506001600160a01b0380821660009081526005602090815260408083209388168352929052205460ff165b806114495750836001600160a01b031661143e8461067c565b6001600160a01b0316145b949350505050565b826001600160a01b031661146482610b00565b6001600160a01b03161461148a5760405162461bcd60e51b81526004016105be90612502565b6001600160a01b0382166114ec5760405162461bcd60e51b8152602060048201526024808201527f4552433732313a207472616e7366657220746f20746865207a65726f206164646044820152637265737360e01b60648201526084016105be565b6114f9838383600161189f565b826001600160a01b031661150c82610b00565b6001600160a01b0316146115325760405162461bcd60e51b81526004016105be90612502565b600081815260046020908152604080832080546001600160a01b03199081169091556001600160a01b0387811680865260038552838620805460001901905590871680865283862080546001019055868652600290945282852080549092168417909155905184937fddf252ad1be2c89b69c2b068fc378daa952ba7f163c4a11628f55a4df523b3ef91a4505050565b600680546001600160a01b038381166001600160a01b0319831681179093556040519116919082907f8be0079c531659141344cd1fd0a4f28419497f9722a3daafe3b4186f6b6457e090600090a35050565b816001600160a01b0316836001600160a01b0316036116755760405162461bcd60e51b815260206004820152601960248201527f4552433732313a20617070726f766520746f2063616c6c65720000000000000060448201526064016105be565b6001600160a01b03838116600081815260056020908152604080832094871680845294825291829020805460ff191686151590811790915591519182527f17307eab39ab6107e8899845ad3d59bd9653f200f220920489ca2b5937696c31910160405180910390a3505050565b6116ed848484611451565b6116f9848484846118fb565b610d7b5760405162461bcd60e51b81526004016105be90612547565b60606000611722836119fc565b600101905060008167ffffffffffffffff81111561174257611742611e4e565b6040519080825280601f01601f19166020018201604052801561176c576020820181803683370190505b5090508181016020015b600019016f181899199a1a9b1b9c1cb0b131b232b360811b600a86061a8153600a850494508461177657509392505050565b6001600160a01b0381166000908152600b602052604090206002015460ff16156118085760405162461bcd60e51b8152602060048201526011602482015270105b1c9958591e4819dc98591d585d1959607a1b60448201526064016105be565b60088054600091826118198361242a565b9190505590506118298282611ad4565b6001600160a01b0382166000818152600b6020908152604080832060028101805460ff19166001179055600301859055848352600c90915280822080546001600160a01b03191684179055518392917f3a11b9c0ca38b86101cb9e6e1dd2f752c31467c6eaa353f931b801a338406de691a35050565b6001600160a01b038416156118f65760405162461bcd60e51b815260206004820152601f60248201527f536f756c626f756e643a205472616e73666572206e6f7420616c6c6f7765640060448201526064016105be565b610d7b565b60006001600160a01b0384163b156119f157604051630a85bd0160e11b81526001600160a01b0385169063150b7a029061193f903390899088908890600401612599565b6020604051808303816000875af192505050801561197a575060408051601f3d908101601f19168201909252611977918101906125cc565b60015b6119d7573d8080156119a8576040519150601f19603f3d011682016040523d82523d6000602084013e6119ad565b606091505b5080516000036119cf5760405162461bcd60e51b81526004016105be90612547565b805181602001fd5b6001600160e01b031916630a85bd0160e11b149050611449565b506001949350505050565b60008072184f03e93ff9f4daa797ed6e38ed64bf6a1f0160401b8310611a3b5772184f03e93ff9f4daa797ed6e38ed64bf6a1f0160401b830492506040015b6d04ee2d6d415b85acef81000000008310611a67576d04ee2d6d415b85acef8100000000830492506020015b662386f26fc100008310611a8557662386f26fc10000830492506010015b6305f5e1008310611a9d576305f5e100830492506008015b6127108310611ab157612710830492506004015b60648310611ac3576064830492506002015b600a83106105825760010192915050565b6107fd828260405180602001604052806000815250611af38383611b1c565b611b0060008484846118fb565b6107b35760405162461bcd60e51b81526004016105be90612547565b6001600160a01b038216611b725760405162461bcd60e51b815260206004820181905260248201527f4552433732313a206d696e7420746f20746865207a65726f206164647265737360448201526064016105be565b6000818152600260205260409020546001600160a01b031615611bd75760405162461bcd60e51b815260206004820152601c60248201527f4552433732313a20746f6b656e20616c7265616479206d696e7465640000000060448201526064016105be565b611be560008383600161189f565b6000818152600260205260409020546001600160a01b031615611c4a5760405162461bcd60e51b815260206004820152601c60248201527f4552433732313a20746f6b656e20616c7265616479206d696e7465640000000060448201526064016105be565b6001600160a01b038216600081815260036020908152604080832080546001019055848352600290915280822080546001600160a01b0319168417905551839291907fddf252ad1be2c89b69c2b068fc378daa952ba7f163c4a11628f55a4df523b3ef908290a45050565b828054828255906000526020600020908101928215611cf0579160200282015b82811115611cf0578251825591602001919060010190611cd5565b50611cfc929150611d00565b5090565b5b80821115611cfc5760008155600101611d01565b6001600160e01b0319811681146112a857600080fd5b600060208284031215611d3d57600080fd5b8135611d4881611d15565b9392505050565b600060208284031215611d6157600080fd5b5035919050565b60005b83811015611d83578181015183820152602001611d6b565b50506000910152565b60008151808452611da4816020860160208601611d68565b601f01601f19169290920160200192915050565b602081526000611d486020830184611d8c565b80356001600160a01b0381168114611de257600080fd5b919050565b60008060408385031215611dfa57600080fd5b611e0383611dcb565b946020939093013593505050565b600080600060608486031215611e2657600080fd5b611e2f84611dcb565b9250611e3d60208501611dcb565b929592945050506040919091013590565b634e487b7160e01b600052604160045260246000fd5b604051601f8201601f1916810167ffffffffffffffff81118282101715611e8d57611e8d611e4e565b604052919050565b60008067ffffffffffffffff841115611eb057611eb0611e4e565b50601f8301601f1916602001611ec581611e64565b915050828152838383011115611eda57600080fd5b828260208301376000602084830101529392505050565b600082601f830112611f0257600080fd5b611d4883833560208501611e95565b600060208284031215611f2357600080fd5b813567ffffffffffffffff811115611f3a57600080fd5b61144984828501611ef1565b600082601f830112611f5757600080fd5b813567ffffffffffffffff811115611f7157611f71611e4e565b8060051b611f8160208201611e64565b91825260208185018101929081019086841115611f9d57600080fd5b6020860192505b83831015611fbf578235825260209283019290910190611fa4565b9695505050505050565b600080600060608486031215611fde57600080fd5b833567ffffffffffffffff811115611ff557600080fd5b61200186828701611ef1565b935050602084013567ffffffffffffffff81111561201e57600080fd5b61202a86828701611ef1565b925050604084013567ffffffffffffffff81111561204757600080fd5b61205386828701611f46565b9150509250925092565b6080815260006120706080830187611d8c565b82810360208401526120828187611d8c565b83810360408501528551808252602080880193509091019060005b818110156120bb57835183526020938401939092019160010161209d565b50508092505050821515606083015295945050505050565b6000602082840312156120e557600080fd5b611d4882611dcb565b6060815260006121016060830186611d8c565b82810360208401526121138186611d8c565b9150508215156040830152949350505050565b6000806040838503121561213957600080fd5b61214283611dcb565b91506020830135801515811461215757600080fd5b809150509250929050565b6000806000806080858703121561217857600080fd5b61218185611dcb565b935061218f60208601611dcb565b925060408501359150606085013567ffffffffffffffff8111156121b257600080fd5b8501601f810187136121c357600080fd5b6121d287823560208401611e95565b91505092959194509250565b600080604083850312156121f157600080fd5b82359150602083013567ffffffffffffffff81111561220f57600080fd5b61221b85828601611f46565b9150509250929050565b6000806040838503121561223857600080fd5b61224183611dcb565b915061224f60208401611dcb565b90509250929050565b6020808252600e908201526d496e76616c6964206d6f64756c6560901b604082015260600190565b600181811c9082168061229457607f821691505b6020821081036122b457634e487b7160e01b600052602260045260246000fd5b50919050565b6020808252602d908201527f4552433732313a2063616c6c6572206973206e6f7420746f6b656e206f776e6560408201526c1c881bdc88185c1c1c9bdd9959609a1b606082015260800190565b601f8211156107b357806000526020600020601f840160051c8101602085101561232e5750805b601f840160051c820191505b8181101561234e576000815560010161233a565b5050505050565b815167ffffffffffffffff81111561236f5761236f611e4e565b6123838161237d8454612280565b84612307565b6020601f8211600181146123b7576000831561239f5750848201515b600019600385901b1c1916600184901b17845561234e565b600084815260208120601f198516915b828110156123e757878501518255602094850194600190920191016123c7565b50848210156124055786840151600019600387901b60f8161c191681555b50505050600190811b01905550565b634e487b7160e01b600052601160045260246000fd5b60006001820161243c5761243c612414565b5060010190565b600080845461245181612280565b600182168015612468576001811461247d576124ad565b60ff19831686528115158202860193506124ad565b87600052602060002060005b838110156124a557815488820152600190910190602001612489565b505081860193505b50505083516124c0818360208801611d68565b64173539b7b760d91b9101908152600501949350505050565b8181038181111561058257610582612414565b634e487b7160e01b600052603260045260246000fd5b60208082526025908201527f4552433732313a207472616e736665722066726f6d20696e636f72726563742060408201526437bbb732b960d91b606082015260800190565b60208082526032908201527f4552433732313a207472616e7366657220746f206e6f6e20455243373231526560408201527131b2b4bb32b91034b6b83632b6b2b73a32b960711b606082015260800190565b6001600160a01b0385811682528416602082015260408101839052608060608201819052600090611fbf90830184611d8c565b6000602082840312156125de57600080fd5b8151611d4881611d1556fea26469706673582212203b2a009ae12f72d0a64984c36084122dfe3d342daf6da76c7e5777b2611703b764736f6c634300081a0033",
  "devdoc": {
    "details": "Gamified learning platform for Scroll L2 with soulbound NFT badges",
    "events": {
      "Approval(address,address,uint256)": {
        "details": "Emitted when `owner` enables `approved` to manage the `tokenId` token."
      },
      "ApprovalForAll(address,address,bool)": {
        "details": "Emitted when `owner` enables or disables (`approved`) `operator` to manage all of its assets."
      },
      "Transfer(address,address,uint256)": {
        "details": "Emitted when `tokenId` token is transferred from `from` to `to`."
      }
    },
    "kind": "dev",
    "methods": {
      "addModule(string,string,uint256[])": {
        "details": "Add a new learning module (only owner)",
        "params": {
          "correctAnswers": "Array of correct answer indices",
          "description": "Module description  ",
          "title": "Module title"
        }
      },
      "approve(address,uint256)": {
        "details": "See {IERC721-approve}."
      },
      "balanceOf(address)": {
        "details": "See {IERC721-balanceOf}."
      },
      "getApproved(uint256)": {
        "details": "See {IERC721-getApproved}."
      },
      "getModule(uint256)": {
        "details": "Get module details including correct answers (for debugging)"
      },
      "getUserProgress(address)": {
        "details": "Get user's completion status"
      },
      "hasCompletedModule(address,uint256)": {
        "details": "Check if user completed specific module"
      },
      "isApprovedForAll(address,address)": {
        "details": "See {IERC721-isApprovedForAll}."
      },
      "name()": {
        "details": "See {IERC721Metadata-name}."
      },
      "owner()": {
        "details": "Returns the address of the current owner."
      },
      "ownerOf(uint256)": {
        "details": "See {IERC721-ownerOf}."
      },
      "renounceOwnership()": {
        "details": "Leaves the contract without owner. It will not be possible to call `onlyOwner` functions. Can only be called by the current owner. NOTE: Renouncing ownership will leave the contract without an owner, thereby disabling any functionality that is only available to the owner."
      },
      "safeTransferFrom(address,address,uint256)": {
        "details": "See {IERC721-safeTransferFrom}."
      },
      "safeTransferFrom(address,address,uint256,bytes)": {
        "details": "See {IERC721-safeTransferFrom}."
      },
      "setApprovalForAll(address,bool)": {
        "details": "See {IERC721-setApprovalForAll}."
      },
      "setBaseTokenURI(string)": {
        "details": "Update base URI for token metadata"
      },
      "submitQuiz(uint256,uint256[])": {
        "details": "Submit quiz answers for a module",
        "params": {
          "answers": "Array of answer indices (0-based)",
          "moduleId": "Module to complete"
        }
      },
      "supportsInterface(bytes4)": {
        "details": "See {IERC165-supportsInterface}."
      },
      "symbol()": {
        "details": "See {IERC721Metadata-symbol}."
      },
      "toggleModule(uint256)": {
        "details": "Toggle module active status"
      },
      "tokenURI(uint256)": {
        "details": "Override tokenURI to return dynamic metadata"
      },
      "transferFrom(address,address,uint256)": {
        "details": "See {IERC721-transferFrom}."
      },
      "transferOwnership(address)": {
        "details": "Transfers ownership of the contract to a new account (`newOwner`). Can only be called by the current owner."
      },
      "updateModuleAnswers(uint256,uint256[])": {
        "details": "Update module quiz answers"
      }
    },
    "title": "ScrollAcademy",
    "version": 1
  },
  "userdoc": {
    "kind": "user",
    "methods": {},
    "version": 1
  },
  "storageLayout": {
    "storage": [
      {
        "astId": 138,
        "contract": "contracts/ScrollAcademy.sol:ScrollAcademy",
        "label": "_name",
        "offset": 0,
        "slot": "0",
        "type": "t_string_storage"
      },
      {
        "astId": 140,
        "contract": "contracts/ScrollAcademy.sol:ScrollAcademy",
        "label": "_symbol",
        "offset": 0,
        "slot": "1",
        "type": "t_string_storage"
      },
      {
        "astId": 144,
        "contract": "contracts/ScrollAcademy.sol:ScrollAcademy",
        "label": "_owners",
        "offset": 0,
        "slot": "2",
        "type": "t_mapping(t_uint256,t_address)"
      },
      {
        "astId": 148,
        "contract": "contracts/ScrollAcademy.sol:ScrollAcademy",
        "label": "_balances",
        "offset": 0,
        "slot": "3",
        "type": "t_mapping(t_address,t_uint256)"
      },
      {
        "astId": 152,
        "contract": "contracts/ScrollAcademy.sol:ScrollAcademy",
        "label": "_tokenApprovals",
        "offset": 0,
        "slot": "4",
        "type": "t_mapping(t_uint256,t_address)"
      },
      {
        "astId": 158,
        "contract": "contracts/ScrollAcademy.sol:ScrollAcademy",
        "label": "_operatorApprovals",
        "offset": 0,
        "slot": "5",
        "type": "t_mapping(t_address,t_mapping(t_address,t_bool))"
      },
      {
        "astId": 7,
        "contract": "contracts/ScrollAcademy.sol:ScrollAcademy",
        "label": "_owner",
        "offset": 0,
        "slot": "6",
        "type": "t_address"
      },
      {
        "astId": 2824,
        "contract": "contracts/ScrollAcademy.sol:ScrollAcademy",
        "label": "totalModules",
        "offset": 0,
        "slot": "7",
        "type": "t_uint256"
      },
      {
        "astId": 2827,
        "contract": "contracts/ScrollAcademy.sol:ScrollAcademy",
        "label": "nextTokenId",
        "offset": 0,
        "slot": "8",
        "type": "t_uint256"
      },
      {
        "astId": 2829,
        "contract": "contracts/ScrollAcademy.sol:ScrollAcademy",
        "label": "baseTokenURI",
        "offset": 0,
        "slot": "9",
        "type": "t_string_storage"
      },
      {
        "astId": 2834,
        "contract": "contracts/ScrollAcademy.sol:ScrollAcademy",
        "label": "modules",
        "offset": 0,
        "slot": "10",
        "type": "t_mapping(t_uint256,t_struct(Module)2811_storage)"
      },
      {
        "astId": 2839,
        "contract": "contracts/ScrollAcademy.sol:ScrollAcademy",
        "label": "userProgress",
        "offset": 0,
        "slot": "11",
        "type": "t_mapping(t_address,t_struct(UserProgress)2822_storage)"
      },
      {
        "astId": 2843,
        "contract": "contracts/ScrollAcademy.sol:ScrollAcademy",
        "label": "badgeOwner",
        "offset": 0,
        "slot": "12",
        "type": "t_mapping(t_uint256,t_address)"
      }
    ],
    "types": {
      "t_address": {
        "encoding": "inplace",
        "label": "address",
        "numberOfBytes": "20"
      },
      "t_array(t_uint256)dyn_storage": {
        "base": "t_uint256",
        "encoding": "dynamic_array",
        "label": "uint256[]",
        "numberOfBytes": "32"
      },
      "t_bool": {
        "encoding": "inplace",
        "label": "bool",
        "numberOfBytes": "1"
      },
      "t_mapping(t_address,t_bool)": {
        "encoding": "mapping",
        "key": "t_address",
        "label": "mapping(address => bool)",
        "numberOfBytes": "32",
        "value": "t_bool"
      },
      "t_mapping(t_address,t_mapping(t_address,t_bool))": {
        "encoding": "mapping",
        "key": "t_address",
        "label": "mapping(address => mapping(address => bool))",
        "numberOfBytes": "32",
        "value": "t_mapping(t_address,t_bool)"
      },
      "t_mapping(t_address,t_struct(UserProgress)2822_storage)": {
        "encoding": "mapping",
        "key": "t_address",
        "label": "mapping(address => struct ScrollAcademy.UserProgress)",
        "numberOfBytes": "32",
        "value": "t_struct(UserProgress)2822_storage"
      },
      "t_mapping(t_address,t_uint256)": {
        "encoding": "mapping",
        "key": "t_address",
        "label": "mapping(address => uint256)",
        "numberOfBytes": "32",
        "value": "t_uint256"
      },
      "t_mapping(t_uint256,t_address)": {
        "encoding": "mapping",
        "key": "t_uint256",
        "label": "mapping(uint256 => address)",
        "numberOfBytes": "32",
        "value": "t_address"
      },
      "t_mapping(t_uint256,t_bool)": {
        "encoding": "mapping",
        "key": "t_uint256",
        "label": "mapping(uint256 => bool)",
        "numberOfBytes": "32",
        "value": "t_bool"
      },
      "t_mapping(t_uint256,t_struct(Module)2811_storage)": {
        "encoding": "mapping",
        "key": "t_uint256",
        "label": "mapping(uint256 => struct ScrollAcademy.Module)",
        "numberOfBytes": "32",
        "value": "t_struct(Module)2811_storage"
      },
      "t_string_storage": {
        "encoding": "bytes",
        "label": "string",
        "numberOfBytes": "32"
      },
      "t_struct(Module)2811_storage": {
        "encoding": "inplace",
        "label": "struct ScrollAcademy.Module",
        "members": [
          {
            "astId": 2803,
            "contract": "contracts/ScrollAcademy.sol:ScrollAcademy",
            "label": "title",
            "offset": 0,
            "slot": "0",
            "type": "t_string_storage"
          },
          {
            "astId": 2805,
            "contract": "contracts/ScrollAcademy.sol:ScrollAcademy",
            "label": "description",
            "offset": 0,
            "slot": "1",
            "type": "t_string_storage"
          },
          {
            "astId": 2808,
            "contract": "contracts/ScrollAcademy.sol:ScrollAcademy",
            "label": "correctAnswers",
            "offset": 0,
            "slot": "2",
            "type": "t_array(t_uint256)dyn_storage"
          },
          {
            "astId": 2810,
            "contract": "contracts/ScrollAcademy.sol:ScrollAcademy",
            "label": "active",
            "offset": 0,
            "slot": "3",
            "type": "t_bool"
          }
        ],
        "numberOfBytes": "128"
      },
      "t_struct(UserProgress)2822_storage": {
        "encoding": "inplace",
        "label": "struct ScrollAcademy.UserProgress",
        "members": [
          {
            "astId": 2813,
            "contract": "contracts/ScrollAcademy.sol:ScrollAcademy",
            "label": "completedModules",
            "offset": 0,
            "slot": "0",
            "type": "t_uint256"
          },
          {
            "astId": 2817,
            "contract": "contracts/ScrollAcademy.sol:ScrollAcademy",
            "label": "moduleCompleted",
            "offset": 0,
            "slot": "1",
            "type": "t_mapping(t_uint256,t_bool)"
          },
          {
            "astId": 2819,
            "contract": "contracts/ScrollAcademy.sol:ScrollAcademy",
            "label": "hasGraduated",
            "offset": 0,
            "slot": "2",
            "type": "t_bool"
          },
          {
            "astId": 2821,
            "contract": "contracts/ScrollAcademy.sol:ScrollAcademy",
            "label": "badgeTokenId",
            "offset": 0,
            "slot": "3",
            "type": "t_uint256"
          }
        ],
        "numberOfBytes": "128"
      },
      "t_uint256": {
        "encoding": "inplace",
        "label": "uint256",
        "numberOfBytes": "32"
      }
    }
  }
}